:020000040800F2
:100000006021002001010008050100080701000827
:10001000090100080B0100080D01000800000000A4
:1000200000000000000000000000000011010008B6
:100030000F01000800000000130200089D2E0008B8
:10004000DF370008DB280008C12E0008BF2B00089E
:10005000B91200082D2B0008691100080D120008C4
:100060000F120008111200081312000829100008CE
:100070002B1000082D1000082F1000083110000868
:1000800033100008351000086B030008DB37000848
:10009000DD37000825100008271000081512000899
:1000A000C32E0008C92E0008C72E0008C52E000860
:1000B000CB2E0008CD2E0008CF2E00086D140008AE
:1000C0006B140008711400086F140008C12B00089D
:1000D000C32B000839340008F9340008FB34000849
:1000E000B9110008BD2B0008D93700080000000036
:1000F0000000000000000000000000000000000000
:1001000004480047FEE7FEE7FEE7FEE7FEE7FEE7FE
:10011000FEE700001901000800F002F800F03AF8CC
:100120000AA090E8000C82448344AAF10107DA4552
:1001300001D100F02FF8AFF2090EBAE80F0013F06A
:10014000010F18BFFB1A43F0010318472C5C000095
:100150004C5C0000103A24BF78C878C1FAD8520726
:1001600024BF30C830C144BF04680C607047000031
:100170000023002400250026103A28BF78C1FBD8B0
:10018000520728BF30C148BF0B6070471FB51FBD65
:1001900010B510BD00F092F81146FFF7F7FF03F01D
:1001A000EDFE00F0B0F803B4FFF7F2FF03BC00F07F
:1001B000B1F8000002480349034A044B70470000AD
:1001C0006019002060210020601D0020601D0020BB
:1001D000EFF3108072B6704780F3108870472448A0
:1001E0004FF0FF010170002080F309881D480121B4
:1001F000017020484FF08051016062B6FEE71D4853
:100200004FF08051016070471A484FF080510160F3
:100210007047EFF3098028B1203880E8F00F1249C9
:100220000968086000B50A4880475DF804EB0B4890
:100230000B490A7802700C480C490A680260106881
:1002400090E8F00F203080F309884EF0040E7047DC
:10025000CF2100081D1D0008660000206800002056
:10026000690000206B000020880000209000002022
:1002700022ED00E004ED00E072B6704762B6704710
:10028000EFF3108072B6704780F3108870477047A4
:100290007047704710B500F009F8006810BD10B540
:1002A000044600F003F8046010BD000000487047E9
:1002B0000019002000487047001900207546FFF71C
:1002C000F9FFAE4605006946534620F00700854613
:1002D00018B020B5FFF76EFFBDE820404FF00006D4
:1002E0004FF000074FF000084FF0000B21F007011E
:1002F000AC46ACE8C009ACE8C009ACE8C009ACE861
:10030000C0098D4670470446AFF300802046FFF7D2
:100310004AFF000001491820ABBEFEE7260002009C
:100320007047002904D0816841F001018160704765
:10033000816821F0010181607047014600208968D1
:10034000490700D501207047C06C80B27047024653
:10035000002012680A4200D00120704701460020A8
:100360008968090700D501207047704710B54268B9
:100370000E4B1A400C790B6842EA04221343436087
:1003800082680B4B1A40D1E9024323434C7942EA7D
:10039000440213438360C26A22F47002097C491E3E
:1003A000C9B242EA0151C16210BD0000FFFEF0FF78
:1003B000FDF7F1FF70B5072609290AD9C568A1F133
:1003C0000A0404EB4404A640B543A3401D43C560A2
:1003D00007E0056901EB4104A640B543A3401D4376
:1003E00005611F23072A09D2446B521E02EB8202C9
:1003F00093409C4391400C43446370BD0D2A09D245
:10040000046BD21F02EB820293409C4391400C4349
:10041000046370BDC46A0D3A02EB820293409C43B0
:1004200091400C43C46270BD816841F00801816055
:100430007047002904D0816841F4A00181607047B1
:10044000816821F4A00181607047816841F0040156
:10045000816070472DE9F04FB5B005460E46144651
:100460009846DFF8C0B4DBF800100F46384604F0B9
:1004700069FC0A90DBF804103846894604F062FCF7
:100480000990DBF808103846349104F05BFC0890C2
:10049000DBF80C1038468A4604F054FC07904946B5
:1004A000484604F04FFC06904846349904F04AFC54
:1004B00005905146484604F045FC0490349908469E
:1004C00004F040FC03905146349804F03BFC029049
:1004D0005146504604F036FC0190B6F9000004F095
:1004E00019FC0746B6F9020004F014FC8146B6F97F
:1004F000040004F00FFC1590B5F9000004F00AFCAC
:100500000646B5F9020004F005FC1390B5F90400A5
:1005100004F000FC1290B4F900004FF47A614843F3
:10052000C11700EB1140001404F0F4FBFE4D294606
:1005300004F008FCDFF8F4A3514604F00DFB119021
:10054000B4F902004FF47A614843C11700EB11403F
:10055000001404F0DFFB294604F0F4FB514604F0DC
:10056000FBFA1090B4F904004FF47A614843C117C4
:1005700000EB1140001404F0CDFB294604F0E2FB2F
:10058000514604F0E9FA0F901599084604F0DAFB99
:1005900004464946484604F0D5FB054639463846E8
:1005A00004F0D0FB294604F06FFA214604F06CFAFF
:1005B00003F09AFC04462146384604F0C3FB17902A
:1005C0002146484604F0BEFB16902146159804F0DB
:1005D000B9FB15901299084604F0B4FB1399044630
:1005E000084604F0AFFB05463146304604F0AAFB4E
:1005F000294604F049FA214604F046FA03F074FC57
:1006000004462146304604F09DFB14902146139881
:1006100004F098FB13902146129804F093FB12907B
:100620000899049804F030FA044633900121129896
:1006300004F033FD2146329004F084FB04F0F8F915
:1006400006460F460799059804F052FC044631907F
:100650000121139804F021FD2146309004F072FB33
:1006600004F0E6F981468A46019804F0E1F9CDE903
:100670002E1004460D46039804F0DAF9CDE92C104B
:100680000022AB4B03F0F8FF22462B4604F0E6F8BD
:10069000CDE92A1004460D460121149804F0FDFC12
:1006A000299004F0C5F922462B4603F0E7FE4A469E
:1006B000534603F0DBFC32463B4603F0D7FC03F025
:1006C000A3FC81460999029804F012FC0146289087
:1006D000329804F037FB04F0ABF9DDE92E760446DE
:1006E0000D46069804F0A4F90022914B03F0C4FFD4
:1006F000824632463B46279104F0B0F806460F4644
:10070000309804F095F932463B4603F0B7FE0646B2
:100710000F460799059804F0B7F9014626902998E5
:1007200004F010FB04F084F932463B4603F09EFCD3
:1007300022462B4603F09AFC03F066FC0646DDE9F0
:100740002C325046279904F089F8824604460D461B
:100750002591329804F06CF922462B4603F08EFE68
:1007600004460D460999029804F08EF9014624903A
:10077000309804F0E7FA07460899049804F0B8FBAB
:1007800001462390299804F0DDFA394604F07CF9FB
:1007900004F04EF922462B4603F068FC03F034FCCB
:1007A00004463146304604F0CDFA054649464846EF
:1007B00004F0C8FA294604F067F904F039F903F0A7
:1007C000FDFB03F021FC0E900121239804F065FC51
:1007D000814622900121249804F05FFC21900C9026
:1007E00006990A9804F084FB2090039904F080FB9A
:1007F000019904F049F91F900B9001212046239D97
:1008000004F04BFC29461E9004F09CFA04F010F909
:10081000DDE92A7604460D4601210E9804F03DFCE0
:100820001D9004F005F932463B4603F027FE2246B0
:100830002B4603F01BFC03F0E7FB064624991E98A9
:1008400004F080FA044631991D9804F07BFA2146A1
:1008500004F01AF907465446259D1E9804F0E8F85E
:1008600022462B4603F00AFE04460D4633991D9896
:1008700004F068FA04F0DCF822462B4603F0F6FB9D
:1008800003F0C2FB04463946129804F05BFA0546B1
:100890002146139804F056FA294604F029FB054630
:1008A0000C99159804F04EFA82460B99169804F0AC
:1008B00049FA514604F01CFB294604F0E5F80D9076
:1008C0002146149804F03EFA04463146129804F08A
:1008D00039FA214604F00CFB04460B99179804F0F2
:1008E00031FA05464946159804F02CFA294604F0D9
:1008F000FFFA214604F0C8F882463146139804F006
:1009000021FA04463946149804F01CFA214604F0F2
:10091000EFFA04464946169804F014FA05460C9975
:10092000179807E030000020DA0F494000003443F8
:100930000000E03F04F006FA294604F0D9FA214607
:1009400004F0A2F806460D9810F0FF4F71D01AF08F
:10095000FF4F6ED016F0FF4F6BD0FE490D9804F09C
:10096000F1F904F065F8FC4AFC4B03F087FD0446FE
:100970000D46DBF8100004F05BF822462B4603F02E
:1009800075FB03F041FB8146CBF81000F14950465E
:1009900004F0D8F904F04CF8EF4AF04B03F06EFD88
:1009A00004460D46DBF8140004F042F822462B46BC
:1009B00003F05CFB03F028FB0746CBF81400E54985
:1009C000304604F0BFF904F033F8E34AE34B03F098
:1009D00055FD04460D46DBF8180004F029F82246C0
:1009E0002B4603F043FB03F00FFB0446CBF8180043
:1009F00001210D9804F051FB119904F045F8494686
:100A000004F042F811900121504604F046FB109981
:100A100004F03AF8394604F037F8109001213046D6
:100A200004F03BFB0F9904F02FF8214604F02CF85A
:100A30000F900121019804F030FB04464FF040462E
:100A40003146069804F07EF98146214604F050FABA
:100A50004FF07E57394604F017F803F0E9FF0446DB
:100A60000D460121079804F018FB824601210598E4
:100A700004F013FB514604F007F803F0D9FF2246B7
:100A80002B4603F071F9B64CB64D22462B4603F0C7
:100A9000F5FC03F0B9FAC8F80000DFF8CCA210F1B9
:100AA000FF4F04D3514603F0EFFFC8F80000D8F819
:100AB00000005146884203DD04F01AFAC8F800002D
:100AC0000121089804F0E9FA82463146049804F0BE
:100AD00039F9514603F0D8FF03F0AAFF02F0FCFEFB
:100AE000264632462B4603F0C9FC03F08DFAC8F8BF
:100AF00004000121039804F0D0FA0146484604F0AE
:100B0000F7F9394603F0C0FF03F092FF04460D46A3
:100B10000121099804F0C1FA07460121029804F066
:100B2000BCFA394603F0B0FF03F082FF22462B46A1
:100B300003F01AF932468D4B03F0A0FC03F064FA7F
:100B4000C8F8080006990A9803F09EFF039903F07D
:100B50009BFF019903F098FF854C05462060012119
:100B6000319804F09AFA064660600999049803F0F7
:100B70008BFF012104F091FA0746A060012126981D
:100B800004F08BFA8146E0600399209803F07CFF23
:100B9000019904F0ADF9824620610121289804F002
:100BA0007CFA60611C902298A0611B902198E06102
:100BB0001A901F982062044638460F9904F0C2F834
:100BC00007463046109904F0BDF8064628461199AC
:100BD00004F0B8F8314603F057FF394603F054FFEC
:100BE000634D0746243528600F991C9804F0AAF835
:100BF00006465046109904F0A5F8824648461199D9
:100C000004F0A0F8514603F03FFF314603F03CFFEB
:100C10006860199020460F9904F094F804461099E2
:100C20001A9804F08FF8064611991B9804F08AF878
:100C3000314603F029FF214603F026FF0646A8604F
:100C4000384603F0F5FEDFF81091DFF810A14A46B0
:100C5000534603F013FC4A46534603F00FFC0222AE
:100C600004F0EDF904460D46D8F8280003F0E0FE44
:100C700022462B4603F0FAF903F0C6F9C8F828001B
:100C8000199803F0D5FE4A46534603F0F7FB4A464F
:100C9000534603F0F3FB022204F0D1F904460D465B
:100CA000D8F82C0003F0C4FE22462B4603F0DEF9F0
:100CB00003F0AAF9C8F82C00304603F0B9FE4A4602
:100CC000534603F0DBFB4A46534603F0D7FB0222B0
:100CD00004F0B5F904460D46D8F8300003F0A8FE3C
:100CE00022462B4603F0C2F903F08EF9C8F8300013
:100CF000DBF80C000F99189004F024F80446DBF898
:100D000008001099804604F01DF8DBF804700546D1
:100D100087F00040119904F015F8294604F0E8F82E
:100D2000214604F0E5F803F083FE4A46534603F0FB
:100D3000A5FB04460D46DBF8000003F079FE2246D1
:100D40002B4603F093F903F05FF90646CBF8000059
:100D500010990FE00AD7A33B7B14AE47E17A743FAA
:100D6000775AF01ADCA54CC00000B443DCA54C4017
:100D7000640E0020189803F0E5FF044640460F99E2
:100D800003F0E0FF05463046119903F0DBFF2946EA
:100D900003F07AFE214604F0ABF803F049FE4A4620
:100DA000534603F06BFB04460D46384603F040FE05
:100DB00022462B4603F05AF903F026F90746CBF8F2
:100DC00004001199189803F0BDFF044638460F99A6
:100DD00003F0B8FF05463046109903F0B3FF2946EB
:100DE00004F086F8214603F04FFE03F021FE4A4648
:100DF000534603F043FB04460D46404603F018FEFD
:100E000022462B4603F032F903F0FEF88046CBF879
:100E100008004046119903F095FF044638461099A2
:100E200003F090FF054630460F9903F08BFF2946EB
:100E300003F02AFE214604F05BF803F0F9FD4A4670
:100E4000534603F01BFB04460D46189803F0F0FDD3
:100E500022462B4603F00AF903F0D6F8CBF80C0033
:100E6000014603F06FFF04464146404603F06AFF27
:100E700005463946384603F065FF07463146304699
:100E800003F060FF394603F0FFFD294603F0FCFD47
:100E9000214603F0F9FD03F027F804462146DBF86C
:100EA000000003F04FFFCBF800002146DBF8040000
:100EB00003F048FFCBF804002146DBF8080003F0FC
:100EC00041FFCBF808002146DBF80C0003F03AFFA5
:100ED000CBF80C0035B0BDE8F08F704770B586B028
:100EE000002000F047FF244CE060002000F042FFAB
:100EF0002061002000F03EFF606103240025CDE961
:100F000003541E494FF48070CDE9011004200346BC
:100F100001F57F7200902946194801F057F81948E9
:100F2000019080260720CDE90265034600900494D5
:100F3000154A0021154801F049F81348CDE902652A
:100F4000001D01900820034600900494104A0021DF
:100F5000104801F03BF80E48CDE90265001D0190F4
:100F600009200346009004940B4A00210B4801F02D
:100F70002DF806B070BD00000000002064040020C1
:100F8000D12E000864080020600A002041300008CB
:100F9000600C002085300008600E00209D310008A4
:100FA0007047704701F0DCF900F0B0FF00F088FBFB
:100FB000FFF794FF0F4800F098FD0E48801D00F0E9
:100FC00069FD0C48801F00F019FA0121084600F065
:100FD000DDFB084A084B911D901FFFF73BFA0021EB
:100FE000012000F0D3FB00220A231146104601F035
:100FF0001DF9DFE71E000020300200207047704717
:1010000010B501F09FFC00F06FF900F0D5FD4FF432
:10101000E131034802F07EFABDE8104001F0DEBD88
:1010200000380140704770477047704770477047FD
:101030007047704770470000016821F001010160AE
:101040000021016041608160C1603649354A08393C
:10105000904204D1486840F00F0048607047314A20
:101060001432904204D1486840F0F0004860704764
:101070002C4A2832904204D1486840F4706048609D
:101080007047284A3C32904204D1486840F470408E
:1010900048607047234A5032904204D1486840F477
:1010A0007020486070471F4A6432904204D14868FB
:1010B00040F47000486070471A4A7832904204D178
:1010C000486840F0706048607047174A111F9042AE
:1010D00004D1086840F00F0008607047124A1432CB
:1010E000904204D1086840F0F000086070470E4A52
:1010F0002832904204D1086840F47060086070475C
:10110000094A3C32904204D1086840F470400860BB
:101110007047054A50329042FAD1086840F4702076
:1011200008607047080002400804024030B50268B9
:1011300047F6F0739A430C6A8B682343D1E9044560
:101140002C4323438C692343CC6923434C6A2343B8
:101150008C6A234313430360CA6842600A68826052
:101160004968C16030BD000010B5FFF731F80A4A88
:101170001178491C1170FFF72FF8012000F052F888
:1011800030B106A10B4802F0ADFA012000F044F89E
:10119000BDE8104000F0C2BD660000200D0AB2FAA2
:1011A000C9FAD2BBB4CE4558544930D6D0B6CF0DCB
:1011B0000A0000000038014010B5FFF709F80B4A9B
:1011C0001178491C1170FFF707F84FF4805420463E
:1011D00000F028F830B106A10B4802F083FA20464F
:1011E00000F01AF8BDE8104000F098BD660000203D
:1011F0000D0A455854495F4C696E65313220494E9D
:101200005404720A00000000003801407047704723
:101210007047704770470000014908607047000040
:101220001404014001460020054A12680A40044B9C
:1012300014331B680B4202D0002A00D001207047F3
:101240000004014030B51B4A83790168002B2AD085
:1012500013688B431360111D0B680468A3430B6074
:10126000017911440B68046823430B60114C083466
:101270002168036899432160231D19680568A94303
:1012800019604179102905D011440A6800680243A9
:101290000A6030BD21680268114321601968006846
:1012A0000143196030BD0079104402688A4302602E
:1012B00030BD0000000401407047000004490A6886
:1012C00022F010020A600A6802430A6070470000B8
:1012D00000200240034A116801F038010143116007
:1012E000704700000020024008B501210C2001F0E9
:1012F0001BFB0420ADF800008DF80300694602488E
:1013000000F018F808BD0000000C014010B58A0775
:10131000120F0F23934021F00304054921448C68E8
:101320009C438C608B68904003438B6010BD000031
:10133000000001402DE9F0410022CC7804F00F03B9
:10134000E40601D58C7823430C784FF00F0714F096
:10135000FF0F4FF0010C1CD005680CFA02F40E8848
:101360002640A64211D1960007FA06F825EA08059C
:1013700003FA06F848EA0505CE78282E02D0482E52
:1013800002D002E0446100E00461521C082AE4D368
:1013900005600A88FF2A1ED94568002202F1080666
:1013A0000CFA06F40E882640A64210D1960007FAE1
:1013B00006F825EA080503FA06F848EA0505CE7896
:1013C000282E00D14461CE78482E00D10461521CF1
:1013D000082AE3D34560BDE8F081416170470161AF
:1013E000704710B5142200213C2001F035FD002289
:1013F0000221BDE810403C2001F02EBD1CB5044682
:1014000006236A4603213C2000F09AFB00281ED0E8
:101410009DF801009DF8001040EA0120093020806D
:101420009DF805009DF8041040EA012000B29530B7
:1014300042F6A301484342F2107190FBF1F0608044
:101440009DF803009DF8021040EA0120A0801CBD19
:1014500010B5142200213C2001F0FEFC00220221E4
:10146000BDE810403C2001F0F7BC70477047704762
:101470007047000070B5094C4025256000F0FEF86B
:101480008020206000F0FAF8201F056000F0F6F8D8
:101490002560BDE8704000F0F1B80000140C014078
:1014A000F8B50121092001F03FFA1449486820F0FD
:1014B000E06040F0007048600121082001F034FA3B
:1014C00003208DF8020010208DF803004025ADF8B0
:1014D00000500B4E69463046FFF72CFF14218DF863
:1014E00003108024ADF8004069463046FFF722FF24
:1014F0000348103005600460F8BD000000000140A2
:10150000000C014070B5094D40242C6000F0B6F885
:101510002E1F8020306000F0B1F8346000F0AEF88B
:101520002C60BDE8704000F0A9B80000140C014028
:101530002DE9F04708250024DFF844808020C8F812
:101540000000DFF83C90402608F10407A9F10809E3
:101550000EE06006040E3E6000F090F8C8F80060EF
:1015600000F08CF8D9F80000000601D544F0010421
:101570006D1EEDB2EDD23E602046BDE8F087000062
:10158000100C01402DE9F047054608240F4E4FF09E
:1015900080084027A6F1040911E0376000F06EF8DA
:1015A000280602D5C9F8008001E0C6F80080680668
:1015B000050E00F063F8C9F8007000F05FF8641ED3
:1015C000E4B2EAD23760BDE8F0870000140C0140B5
:1015D00070B50E48802404604021016000F04EF890
:1015E0000A4E083E3068000601D4002070BD074D49
:1015F0002D1D2C6000F042F83068000601D5002057
:1016000070BD2C6000F03AF8012070BD100C014054
:1016100070B5094C4026266000F030F88025256022
:1016200000F02CF8241F266000F028F82560BDE8A3
:10163000704000F023B80000140C014070B50E4D4E
:1016400040242C6000F01AF82E1F8020306000F03B
:1016500015F8346000F012F807480C3800680006EE
:1016600004D52C6000F00AF8002070BD2C6000F05A
:1016700005F8012070BD0000140C01400220401E3E
:10168000C0B20028FBD1704770B50646002505F1B1
:10169000B000C0B200F0C6F9002000F0C3F910207D
:1016A00000F0C0F90024304600F0CAF9641CE4B22E
:1016B000802CF8D36D1CEDB2082DE8D370BD00006E
:1016C000F8B50220ADF8000010248DF80340032582
:1016D0008DF802502C4E69463046FFF72BFE210252
:1016E000ADF800108DF803408DF802506946304681
:1016F000FFF720FE02213046FFF76FFE0024022193
:101700003046FFF76AFE641CE4B2C82CF7D302210E
:101710003046FFF764FE002001F044FB802001F01A
:101720002DFB3F2001F04AFB002001F031FB00209F
:1017300001F05CFB042001F0FDFA022001F0F0FA58
:10174000012001F04FFB082001F00AFB102001F0FE
:10175000FCFACF2001F008FBF12001F039FB40201A
:1017600001F048FB002001F021FB002001F022FBEA
:10177000012001F017FB0020FFF786FF002108463B
:1017800000F03EF9F8BD0000000C014070B50128E2
:101790001CD02C4C2C4D022826D0032851D1E9B363
:1017A00001212046FFF71BFE02212046FFF715FE10
:1017B00001212846FFF713FE02212846FFF70FFEFE
:1017C0002846BDE870400421FFF707BE1F484FF4CC
:1017D000005221B1BDE870401146FFF700BEBDE8E0
:1017E00070401146FFF7F9BDA9B101212046FFF76E
:1017F000F6FD02212046FFF7F0FD01212846FFF704
:10180000EEFD02212846FFF7E8FD2846BDE87040BE
:101810000421FFF7E4BD0121204600E007E0FFF7C7
:10182000DEFD2046BDE870400221FFF7D8BD012152
:101830002046FFF7D4FD2046BDE870400221FFF7A7
:10184000CEBD70BD000C01400008014000100140F9
:101850002DE9F04180464806070E203AD5B23946B8
:10186000404600F0CDF800240D4E04EB0510305C2E
:1018700000F0E6F8641CE4B2082CF6D37F1CF9B241
:10188000404600F0BDF8002404EB05103044007A17
:1018900000F0D6F8641CE4B2082CF5D3BDE8F08162
:1018A000C65500082DE9F05F06469346994648065E
:1018B000070E4FF00008DFF898A043E02038C5B2CB
:1018C000782E02D90026BF1CFFB23946304600F000
:1018D00097F80024B9F1000F06D004EB05101AF8B0
:1018E000000000F0ADF807E004EB05101AF8000066
:1018F000C043C0B200F0A4F8641CE4B2082CE9D3E1
:10190000781CC1B2304600F07BF80024B9F1000F1A
:1019100006D004EB05105044007A00F091F807E07F
:1019200004EB05105044007AC043C0B200F088F8C0
:10193000641CE4B2082CE9D30836F6B208F10108B9
:1019400008F0FF081BF808000028B7D1BDE8F09F99
:10195000C65500082DE9F04106460F461446002CF6
:1019600006DA2D2239463046FFF772FF644204E062
:10197000202239463046FFF76BFF4FF47A70B4FBF4
:10198000F0F100FB11426420B2FBF0F1B2FBF0F386
:1019900000FB13230A20B3FBF0F5B2FBF0F300FBCE
:1019A000132806F1080006F11004B1B13031CAB2B3
:1019B000C0B23946FFF74CFF3035EAB2E0B23946E3
:1019C000FFF746FF08F13008183608F0FF02F0B2C2
:1019D0003946BDE8F041FFF73BBFC0B2202239468F
:1019E000FFF736FF35B13035EAB2E0B23946FFF7DE
:1019F0002FFFE7E7E0B220223946FFF729FFE1E7B2
:101A000010B50446B031C8B200F00CF8102040EA1E
:101A1000141000F007F804F00F00BDE8104000F0CB
:101A200001B8000010B504464FF480510348FFF799
:101A3000D4FC2046BDE8104001F058B9000C01402C
:101A400010B504464FF480510348FFF7C8FC204608
:101A5000BDE8104001F04AB9000C014010B5002269
:101A60006B21D02001F0F8F901221921D02001F0DA
:101A7000F3F901221A21D02001F0EEF918221B21DE
:101A8000D02001F0E9F901221C21BDE81040D0204E
:101A900001F0E2B92DE9F04704463C21D02001F0E5
:101AA000B3F905463B21D02001F0AEF906463E21B0
:101AB000D02001F0A9F907463D21D02001F0A4F97A
:101AC00080464021D02001F09FF981463F21D0205F
:101AD00001F09AF945EA0621218047EA0821618050
:101AE00049EA0020A080BDE8F0872DE9F0470446D0
:101AF0004421D02001F088F905464321D02001F08F
:101B000083F906464621D02001F07EF9074645219B
:101B1000D02001F079F980464821D02001F074F9F5
:101B200081464721D02001F06FF945EA0621218046
:101B300047EA0821618049EA0020A080BDE8F087DB
:101B40002DE9F04104460F4615461E46002E17D0DB
:101B5000FFF73EFDB8B12046FFF714FDFFF76EFD1D
:101B600098B13846FFF70EFDFFF768FDFFF730FD2F
:101B7000641CE0B2FFF706FDFFF760FD012410E0F2
:101B80000020BDE8F0810020FBE7FFF741FD0020C9
:101B9000F7E7FFF7CDFC05F8010BFFF76BFC641CC2
:101BA000E4B2B442F5D3FFF7C3FC2870FFF7AAFCF8
:101BB000FFF72EFD0120E4E72DE9FE4300214FF061
:101BC000006000F089F84FF4407000F07BF82520A9
:101BD0008DF800004FF002088DF8018001248DF887
:101BE00002408DF80340684600F03AF80C210320CB
:101BF000FFF78CFB2003019000258DF80850082684
:101C00008DF809608DF80A4001A8FFF71BFB28201A
:101C10008DF8000003278DF801708DF802408DF8D3
:101C20000350684600F01CF800210120FFF76EFB0E
:101C300001948DF808508DF809608DF80A5001A8BC
:101C4000FFF700FB06208DF800008DF801708DF87D
:101C500002808DF80350684600F002F8BDE8FE836C
:101C600070B50F23C27801260178002A1ED0144ACD
:101C7000126802F4E062C2F5E062120AC2F10404E2
:101C8000D3404578A54082781A402A43120101F1D9
:101C9000E02181F80024007800F01F018E40400907
:101CA000800000F1E020C0F8006170BD01F01F006D
:101CB00086404809800000F1E020C0F8806170BDD6
:101CC0000CED00E00249084302490860704700003B
:101CD0000000FA050CED00E0024A11400143024801
:101CE0000160704780FFFF1F08ED00E010B500F0B5
:101CF00012F800F029FC00F037FC00F049FC00F07D
:101D000001FC00F0DDFB00F06DFC00F093FCBDE891
:101D1000104000F001B870477047000070B5134CD8
:101D2000E079012821D1FEF753FA0546A17809B1DF
:101D3000491EA170A07898B9E07888B900F0D0FC6D
:101D40006179207981420BD0094850F82110E16275
:101D5000486B401C4863E068401CE060FEF754FAA2
:101D60002846BDE87040FEF737BA70BD6400002019
:101D7000D413002070B505460E480078002801D025
:101D8000002070BDFEF724FA0B490C680CB16268A4
:101D90000A60FEF721FA54B1012020700020208152
:101DA00065603F21E1732074204600F07DFB2046F2
:101DB00070BD000066000020740000202DE9F0478F
:101DC0000546894614462878012804D00120207051
:101DD0000020BDE8F0872A48007818B10220207062
:101DE0000020F6E72748007818B10D202070002069
:101DF000EFE7FEF7EDF907466E684FF0000846B1D1
:101E0000C5F804803846FEF7E7F984F800803046CC
:101E1000DFE71D4E326812F82C0F40F00200107000
:101E200082F8018022F8029C284600F017FB384611
:101E3000FEF7D2F900F030FCFEF7CAF90746316828
:101E400091F82D6076B1284600F0A8FA3846FEF7E2
:101E5000C3F9022E02D00A20207001E00E2020706B
:101E60000020B6E70D6AC1F8208081F82C80C1F807
:101E70001C803846FEF7B0F984F800802846A8E7B1
:101E800066000020670000208800002070B504462E
:101E90000E462078012801D0012070BDFEF798F988
:101EA0000546A07A60B1002302223146204600F0A8
:101EB00091FA2846FEF790F900F0EEFB002070BD85
:101EC000606820B12846FEF787F9142070BD66606F
:101ED0002846FEF781F9002070BD000010B5094CBE
:101EE000E07900280CD100F0FBFB607920710649F5
:101EF00051F82000E0626062BDE81040FEF76FB963
:101F000010BD000064000020D413002010B5022092
:101F100000F060F9FEF75CF9084C00212162FEF741
:101F20005BF90A2000F056F9FEF752F9216A616167
:101F300001216170BDE81040FEF74EB96400002039
:101F4000FEF7CBBF2DE9FE4305460E4690461C46E4
:101F5000FEF73EF91A49097821B1FEF73DF93C2018
:101F6000BDE8FE83174F57F8241019B1FEF734F976
:101F70002820F5E7012147F82410FEF72DF900236A
:101F800042463146284600F0F5F801460025009506
:101F900001952B462A462046029500F0C9FB0646CD
:101FA0003EB1FEF715F947F82450FEF715F9304613
:101FB000D6E7054800780128F9D100F06DFBF6E777
:101FC00066000020D41300206B0000202DE9FF4F95
:101FD00083B08246DDE91197DDE913868B461C4606
:101FE000FEF7F6F81D49097829B1FEF7F5F83C200F
:101FF00007B0BDE8F08F1A4D55F8241019B1FEF75F
:10200000EBF82820F4E7012145F82410FEF7E4F866
:1020100032463946484600F055FC3346594650464C
:10202000059A00F0A7F80146CDE9007802964A46E5
:102030002046109B00F07CFB064646B1FEF7C8F830
:10204000002145F82410FEF7C7F83046D0E70548D0
:1020500000780128F9D100F01FFBF6E766000020A8
:10206000D41300206B000020FEF79ABFFEF799BF43
:102070002DE9F04105460F4614461D48007800281A
:1020800003D012202070BDE8F081FEF7A1F80646CB
:10209000FF2D03D11748006890F82E50164850F8CD
:1020A00025504FF0430865B1012D10D0384600F09F
:1020B00035FB0F2811D93046FEF78EF841202070ED
:1020C000E1E73046FEF788F884F80080DBE7304629
:1020D000FEF782F884F80080D5E7394605F148001C
:1020E00000F00EFB3046FEF777F800202070CAE7BC
:1020F0006600002088000020D4130020FEF77EBF79
:102100002DE9F04104460E46002030607060FEF775
:102110005FF8FF2C03D11549096891F82E40144946
:1021200051F8242052B1012A0DD0117CC9070ED0DC
:102130000024D7689568FEF74FF80DE0FEF74CF8DD
:102140004320BDE8F081FEF747F84320F9E7FEF7AA
:1021500043F84520F5E7641C01CD0028FBD0A00022
:102160003060381B800070600020EAE788000020A3
:10217000D41300204FF08073136042F8040C083A27
:102180006FF001001060A2F130004FF01233C36213
:102190004FF0033282624FF002324262521002620A
:1021A000C1614FF01131816111014161591001612B
:1021B000D100C1604FF0073181604FF006314160BE
:1021C0004FF0053140F80419910001607047FEF7A7
:1021D00016BF000070B504461048007800281BD1D7
:1021E000002C19D0FDF7F4FF0D49096891F8302053
:1021F0000C4D91F83160AB5CB343AB542BB90A4A38
:1022000091F832501378AB4313704C85FDF7E4FF1F
:10221000BDE8704000F040BA70BD000066000020CC
:1022200088000020800000206A00002070B5174C54
:102230002478002C01D0552070BD5B1D64246343BD
:102240004FF47A74B3FBF4F34FF461646043C1EB71
:10225000011100EB8100104400EBC00101EB001004
:1022600003EB8000040C80B2FFF7B4FF4FF400458D
:1022700007E02846FFF7AEFF2846FFF7ABFF641ED6
:10228000A4B2002CF5D1002070BD00006600002033
:1022900010B50446FDF79CFF02490C60BDE81040F4
:1022A000FDF79ABF980000202DE9F04100F056F8A4
:1022B000FDF78EFF284D696B491C6963FDF78CFFA4
:1022C000E879012845D1687A0126002748B101281C
:1022D00009D0022809D001206F72002839D02C6B58
:1022E00033E00120F9E70020F7E701206E72F4E700
:1022F000FDF76EFF618D29B3491E0904090C618544
:1023000020D194F82C1011F0370F06D021F03701AE
:1023100084F82C1084F82D6001E084F82D7094F876
:102320002C1009070ED494F83210AA791143A97120
:10233000094A94F830101C3294F831C0535C43EAD7
:102340000C0353546469FDF747FF94F82E001F28CF
:10235000CED1BDE8F081000064000020704700008D
:1023600000B585B0684600F045FB01986421B0FBDC
:10237000F1F0B0F1807F0CD220F07F414FF0E020EF
:10238000491E4161044AF021117000218161072139
:10239000016105B000BD000023ED00E010B50C4C5C
:1023A000626A12F8301F43185278D97A9143D97271
:1023B000002905D1626A817A92F8322091438172B4
:1023C000606A00211C3041740174016010BD00007E
:1023D000640000202DE9F041847A1D4F3C5D012509
:1023E00005FA04F6F6B200EB040898F80BC017F8EB
:1023F0000C70BD40EDB207EBC407FFB22CEA050C30
:1024000088F80BC0BCF1000F05D190F80AC02CEA87
:10241000060C80F80AC00F4850F827004FF0000C57
:102420001C30A0F80EC0C0F800C041604374017CAD
:102430009143017441B9084988793043887101F1A9
:102440001C00015D294301553846BDE8F0810000BC
:10245000865B0008D41300206400002070B5114C86
:10246000616AC86191F8302004F11C0591F831606F
:10247000AB5CB343AB54002B04D191F83230A2795A
:102480009A43A27111F8303F00F10B0249789D5C2C
:102490000D439D54626A817A92F832201143817211
:1024A00070BD000064000020002282720B30002109
:1024B00000F8012B491CC9B20429F9D37047000068
:1024C00010B58C210D4800F0DDF80C4800F11C021D
:1024D000002100233F24037042608472C3721C30C9
:1024E0001C32491C89B20429F5D3037043608472FD
:1024F000C37203490148086010BD00007418002031
:102500009C00002010B54FF4A0710D4800F0BAF8FF
:102510000B4800F12002002100233F240370426099
:10252000C473037420302032491C89B20929F5D3C1
:1025300003704360C473037402490148086110BD0D
:10254000940E002064000020064800214163817041
:10255000C1700172C171C1600162816141614170EC
:102560007047000064000020084B00229A7103F1BC
:102570001C01002001F8012B401CC0B20428F9D333
:102580001A715A71DA625A627047000064000020C2
:1025900010B54FF48461114800F074F80F488021A1
:1025A000803800F06FF80D4800F158020021002437
:1025B0003F23426180F8483080F849405830583213
:1025C000491CC9B20B29F4D3446180F8483080F823
:1025D0004940034804630149816210BD541400203E
:1025E0006400002000B587B080220B4BCDE901329A
:1025F00003200021CDE903104FF6FF7000901F2348
:10260000064A0748FFF7E2FC06AA06A11F20FFF7CB
:102610002FFD07B000BD0000D4110020D013002012
:102620001128000875432F4F532D49492049646CE8
:102630006500000000B587B080220B4BCDE9013268
:1026400003200021CDE903104FF6FE7000901E23F9
:10265000064A0748FFF7BAFC06AA06A11E20FFF7A4
:1026600007FD07B000BD0000D40F0020D0110020EE
:102670002D28000875432F4F532D4949205374616D
:1026800074000000002203E000F8012B491E89B20B
:102690000029F9D17047000070B5FDF799FD054696
:1026A0000D4CA07898B9E07888B900F019F86179F4
:1026B000207981420BD0094850F82110E162486B23
:1026C000401C4863E068401CE060FDF798FD284628
:1026D000BDE87040FDF780BD64000020D4130020E9
:1026E0000649054A8879105C01F11C031B5CD25C29
:1026F00002EBC00048717047865B00086400002050
:10270000002204E000F8013B491C521CD2B20B78B5
:10271000002BF7D1002101701046704701460020C0
:1027200002E0491C401CC0B20A78002AF9D1704767
:102730002DE9F05F0646DDE90ABA0D469046994656
:10274000FDF746FD304FBC6A002C58D054F8141FDA
:10275000B962FDF741FD44F8145CA67600252576A4
:102760006576E58244F810AC44F808BC44F80C8C5B
:102770000C9824F8040C24F8029CE577F0082077E4
:10278000012202FA00F1A17706F00700E07602FAD2
:1027900000F16177A5602561E5602562A56265624B
:1027A000E56225633F2084F8340084F83550143CFA
:1027B0002046FFF7C5FB2046FFF756FCFDF708FD56
:1027C0000146124840F82640386B6061A56100B1AF
:1027D00084613C633034BA79A0781043B8710A4AF6
:1027E00020781C326478135C23431354387A401CDD
:1027F00038720846FDF7F0FC0020BDE8F09FFDF7B9
:10280000EBFC4220F9E7000064000020D413002014
:10281000054CFDF7DDFC216A491C2162FDF7DCFC5B
:10282000FFF724FCF5E7000064000020164D02E0ED
:102830001420FFF7CFFC68780028F9D068694FF0C2
:102840006408B0FBF8F40026FDF7C2FC296AA96110
:102850002F6A2E62FDF7C0FC54B1B7FBF4F0C0F153
:10286000640040B2002801DB287005E02E7003E010
:102870002E706869B0FBF8F4FFF740FC00F006F832
:102880000A20FFF7A7FCDFE7640000207CB50024E6
:102890000B4D69462046FFF733FC58B955F8241014
:1028A00041B1012906D0D1E9020200EB820008649F
:1028B00001984864641CE4B21F2CEAD97CBD000076
:1028C000D4130020D30707D0920705D5002201E0DA
:1028D000491E04C00029FBD170477047034A516864
:1028E00021F4404101435160704700000010024054
:1028F000054A002903D0516901435161704751696C
:10290000814351617047000000100240054A0029D0
:1029100003D0D1690143D1617047D1698143D1614D
:102920007047000000100240054A002903D0916959
:102930000143916170479169814391617047000043
:102940000010024010B500F035F84FF480342046F6
:1029500000F0D0F800F01AF915490870012825D1C7
:10296000002000F0BDF8002000F0ECF8A01100F00D
:10297000DFF8A010FFF7B2FF0220FEF7ABFC10203B
:10298000FEF79CFC4FF4E011204600F0EBF801202C
:1029900000F0E2F8392000F083F80028FAD0022095
:1029A00000F0EAF800F094F80828FBD110BD000010
:1029B0004C0000200C48016841F0010101604168B1
:1029C0000A4A114041600168094A114001600168EA
:1029D00021F480210160416821F4FE0141604FF43F
:1029E0001F01816070470000001002400000FFF8E6
:1029F000FFFFF6FE10B5264A516801F00C01254B89
:102A0000002927D0042927D0082927D0036051683E
:102A100001F0F0010909204B5C5C0168E140416074
:102A2000546804F4E064240A1C5D21FA04F4846010
:102A3000546804F46054E40A1B5DD940C1605268D4
:102A400002F44042920B144B1B1F9A5CB1FBF2F153
:102A5000016110BD0360DAE70360D8E7516801F453
:102A60007011536803F48033022404EB914133B1B5
:102A700053689B0307D5094B59430160C7E7074BD0
:102A800059430160C3E7034B59430160BFE70000AE
:102A90000010024000127A005100002000093D00A1
:102AA000034600205909094A01290AD002290AD0FF
:102AB000516A03F01F02012393400B4200D0012012
:102AC00070471168F5E7116AF3E700000010024053
:102AD0000248406800F00C007047000000100240FF
:102AE000034A516821F0F001014351607047000032
:102AF000001002400C490A6822F480320A600A6819
:102B000022F480220A60B0F5803F07D0B0F5802F14
:102B100003D1086840F4A02008607047086840F4BA
:102B200080300860704700000010024070470000CD
:102B3000034A516821F4E06101435160704700008D
:102B400000100240034A516821F4605141EAC0007C
:102B5000506070470010024001490866704700004D
:102B600000004242034B5A6822F47C12084310438F
:102B70005860704700100240034A516821F0030179
:102B800001435160704700000010024018B500205A
:102B900000904FF4A0643120FFF782FF0099491C98
:102BA00000910099A14201D00028F4D03120FFF714
:102BB00077FF08B1012018BD002018BD704770478D
:102BC00070477047002904D0018841F0400101801E
:102BD0007047018821F040010180704730B587B00F
:102BE00001218803FFF792FE01210820FFF79CFED8
:102BF00001214020FFF798FE4FF46040ADF804003B
:102C000003248DF8064018208DF80700204D01A9F7
:102C10002846FEF78FFB0121ADF804108DF8064021
:102C200010218DF8071001A91A48FEF783FBA9149B
:102C3000ADF8041001A92846FEF77CFBA815ADF8F5
:102C4000040001A91448FEF775FB0020ADF8080048
:102C50004FF48271ADF80A10ADF80C00ADF80E001B
:102C6000ADF810006915ADF812100821ADF8141078
:102C7000ADF816000720ADF81800084C02A9204650
:102C800000F017F801212046FFF79CFF07B030BD88
:102C9000000C0140001801400008014000380040CD
:102CA0000246002012890A4200D001207047808924
:102CB000704730B5028802F441530A884C88CD88A9
:102CC00022438C882C4322430C8922434C89224383
:102CD0008C892243CC8922431A430280828B22F4BE
:102CE00000628283098A018230BD000070B505460A
:102CF0000A4C02212046FFF7D3FF0028F9D00748ED
:102D00000C30058001212046FFF7CAFF0028F9D0CA
:102D10002046FFF7CCFFC0B270BD00000038004075
:102D200010B504462020FEF77DFE2046BDE8104089
:102D3000FEF778BE10B504468D20FEF773FE44F012
:102D40001000BDE81040FEF76DBE10B50446DA2055
:102D5000FEF768FE44F00200BDE81040FEF762BED8
:102D600040F0C000FEF75EBE10B504468120FEF7BD
:102D700059FE2046BDE81040FEF754BE10B504468B
:102D8000D520FEF74FFE2046BDE81040FEF74ABEB4
:102D900010B50446D320FEF745FE2046BDE810409E
:102DA000FEF740BE40F0AE00FEF73CBE40F0A4008F
:102DB000FEF738BE40F0A600FEF734BE10B504465C
:102DC000A820FEF72FFE2046BDE81040FEF72ABEE1
:102DD00010B50446D920FEF725FE2046BDE8104078
:102DE000FEF720BE40F0A000FEF71CBE40F0400001
:102DF000FEF718BE10B50446DB20FEF713FE204692
:102E0000BDE81040FEF70EBE70B504460D46FEF755
:102E1000DFFBD8B12046FEF7B5FBFEF70FFCB8B1DB
:102E20002846FEF7AFFBFEF709FCFEF7D1FB641C5A
:102E3000E0B2FEF7A7FBFEF701FCFEF779FB0446C4
:102E4000FEF760FBFEF7E4FB204670BD002070BD7E
:102E5000FEF7DEFB002070BD70B506460C46154639
:102E6000FEF7B6FB98B13046FEF78CFBFEF7E6FBAB
:102E700078B12046FEF786FBFEF7E0FB2846FEF71A
:102E800081FBFEF7DBFBFEF7C3FB012070BD0020DA
:102E900070BDFEF7BDFB002070BD000010B5FDF752
:102EA00097F9064A1178491C1170FDF795F9FFF75B
:102EB000FBF9BDE81040FEF731BF000066000020BE
:102EC000704770477047704770477047704770474A
:102ED0001CB50024514D01AA0021E868FEF76EFFE1
:102EE0000090DFF83C916426DFF838A14FF47A783F
:102EF0000A27009B18784C287DD101206FF02F0CF9
:102F0000195C46290BD02A6802EB82020CEB4202C4
:102F100011442960401CC0B23228F1D36EE0286809
:102F2000B0FBF9F26A6002B10124012C03D13EA189
:102F3000504600F0D7FB2868B0FBF9F109FB1100FF
:102F4000B0FBF8F06860B0FBF6F1A96001B10124B4
:102F5000B0FBF6F106FB1100B0FBF7F2AA6002B17C
:102F60000124012C03D133A1504600F0BBFB69685A
:102F7000B1FBF6F206FB1211B1FBF7F207FB1212DE
:102F8000AA6002B10124012C03D12AA1504600F00D
:102F9000A9FB2868B0FBF8F108FB11006860B0FBE2
:102FA000F6F2AA6002B10124012C03D121A15046FE
:102FB00000F098FB6868B0FBF6F106FB1100B0FB6F
:102FC000F7F2AA6002B10124012C03D119A15046E5
:102FD00000F088FB6868B0FBF6F106FB1100B0FB5F
:102FE000F7F107FB1102AA6002B10124012C05D1FF
:102FF00011A1504600E00AE000F074FB00990020A7
:103000000870286000246946E868FEF73FFF002248
:10301000C82311461046FFF709F96AE700000020AF
:1030200040420F000038014055534152542069730B
:1030300020256400256400002564487A0D0A0000FC
:1030400008B501211020FFF76FFC4FF40050ADF8D8
:10305000000010208DF8030001208DF80200694661
:103060000648FEF767F9064800F072F900222823A7
:1030700011461046FFF7DAF8F5E7000000100140AE
:103080003002002094B000240194029401210846EB
:10309000FFF72EFC01214FF40170FFF745FC0125DD
:1030A000ADF84C508DF84F4013A93848FEF742F95F
:1030B000374E3046FDF7C0FF36490391CDF810D0AA
:1030C00005940220069007940894C001099080009E
:1030D0000A9020200B9000020C900D9403A930461A
:1030E000FEF724F80E948DF83C508DF83D504FF4C7
:1030F0006020109011948DF84850264D0EA94C3D3B
:103100002846FDF733F94FF40040FFF7E7FB0523AE
:10311000012200212846FDF74DF901212846FDF73F
:1031200000F92846FDF780F92846FDF717F9002831
:10313000FAD12846FDF789F92846FDF7FEF8002860
:10314000FAD101212846FDF774F9134C4FF4FA76B1
:1031500002212846FDF7FBF860B1BDF80600ADF886
:103160000800BDF80400ADF806002846FDF7ECF8AD
:10317000ADF8040001A92069FEF788FE002233465D
:1031800011461046FFF752F8E2E700000008014040
:10319000080002404C24014000000020DFF8888134
:1031A000624E634F0A254146B06A01F0CBFD01F043
:1031B00095FD044601235FA200212020FEF772FB4B
:1031C00094FBF5F200210846FEF7C4FB200000D571
:1031D000404290FBF5F105FB11003030C2B20021F6
:1031E0002820FEF735FB4146F06A01F0ABFD01F007
:1031F00075FD044694FBF5F200214020FEF7AAFB82
:10320000200000D5404290FBF5F105FB1100303065
:10321000C2B200216820FEF71BFB012345A200215A
:103220006020FEF73FFB4146306B01F08BFD01F063
:1032300055FD044601233FA219462020FEF732FB2C
:1032400094FBF5F201210020FEF784FB200000D55D
:10325000404290FBF5F105FB11003030C2B2012174
:103260002820FEF7F5FA3946306801F06BFD01F0D1
:1032700035FD044601232FA202212020FEF712FB78
:1032800094FBF5F202210020FEF764FB200000D53C
:10329000404290FBF5F105FB11003030C2B2022133
:1032A0002820FEF7D5FA3946706801F04BFD01F091
:1032B00015FD044694FBF5F202214020FEF74AFB7F
:1032C000200000D5404290FBF5F105FB11003030A5
:1032D000C2B202216820FEF7BBFA012315A2022127
:1032E0006020FEF7DFFA3946B06801F02BFD01F0EF
:1032F000F5FC044601230FA203212020FEF7D2FA99
:1033000094FBF5F203210020FEF724FB200000D5FA
:10331000404290FBF5F105FB11003030C2B20321B1
:103320002820FEF795FA3EE700401C4630020020B8
:10333000000020412E00000010B5044C014620463C
:1033400000F046FA20880006FCD510BD0038014088
:103350002DE9F0410646374F3068394601F0F2FC5E
:1033600001F0BCFC04B23946706801F0EBFC01F0DE
:10337000B5FC05B23946B06801F0E4FC01F0AEFCE2
:1033800006B2A520FFF7D8FF5A20FFF7D5FF10207F
:10339000FFF7D2FFA120FFF7CFFF002C02DAC4F520
:1033A000004004B2C4F307273846FFF7C5FFB13722
:1033B000E4B22046FFF7C0FF2744002D02DAC5F52E
:1033C000004005B2C5F307242046FFF7B5FF2744A8
:1033D000ECB22046FFF7B0FF3D19002E02DAC6F529
:1033E000004006B2C6F307242046FFF7A5FF254498
:1033F000F4B22046FFF7A0FF2C440020FFF79CFF0B
:103400000120FFF799FF641C0020FFF795FF0120C2
:10341000FFF792FF641C0020FFF78EFF0120FFF7EB
:103420008BFF641CE0B2FFF787FFBDE8F041AA20E4
:10343000FFF782BF0000204130B58DB0FCF7C8FE19
:10344000224A1178491C1170FCF7C6FE204D40F24B
:103450002551284600F0ADF838B3284600F0B4F9FD
:103460001C4C21684A1C22606A460DF80100206845
:10347000104410F8010C4C2803D18DF800000120F5
:1034800020602068104410F8010C46280DD112A1CC
:10349000284600F027F91649226800208854206049
:1034A000144869460068FEF7F1FC40F22774214693
:1034B000284600F07EF820B100222146284600F080
:1034C00098F8FEF72BFC0DB030BD00006600002020
:1034D000003801402C0000200D0AB2FAC9FAD2BB14
:1034E000B4CEB4AEBFDAD6D0B6CF0D0A000000001D
:1034F000A00000200C00002070477047002904D075
:10350000818941F4005181817047818921F4005102
:103510008181704770B586B005460C4601210420B4
:10352000FFF702FA01218803FFF7FEF9012108469F
:10353000FFF7FAF94FF48060ADF8040004208DF82D
:103540000700174E01A93046FDF7F4FE7215ADF8DD
:10355000042003208DF8060018208DF8070001A92B
:103560003046FDF7E7FE02940021ADF80C10ADF8EF
:103570000E10ADF81010ADF814100C20ADF81200BC
:1035800002A9284600F050F8012240F225512846B1
:1035900000F02FF801212846FFF7B0FF06B070BDFC
:1035A000000801400246002012880A4200D0012093
:1035B000704770B5002440F66A12C1F3421301F05F
:1035C0001F05012606FA05F2012B0CD0022B0DD0A7
:1035D000838A1340090A8E40008830400BB100B145
:1035E0000124204670BD83891340F3E7038A13400A
:1035F000F0E710B540F66A13C1F3421301F01F045F
:103600000121A140012B07D0022B07D014303AB181
:1036100002680A43026010BD0C30F8E71030F6E78C
:1036200002688A43026010BD30B585B004460D467D
:10363000208A4CF6FF710840E98801432182A08965
:103640004EF6F3110840A9882A8911436A8902437A
:103650001143A181A08A4FF6FF410840A989014387
:10366000A1826846FFF7C6F91D48844201D103983C
:1036700000E00298A189090408D500EBC00101EB24
:10368000001029684900B0FBF1F007E000EBC00131
:1036900001EB001029688900B0FBF1F06422B0FB57
:1036A000F2F109010B096FF018056B4300EB830081
:1036B000A3891D044FF0320307D503EBC000B0FB14
:1036C000F2F000F00700084306E003EB0010B0FB47
:1036D000F2F000F00F000843208105B030BD00007B
:1036E000003801400FB430B585B005460AA80090F7
:1036F0000EE05C2914D025292CD0521C28460992B2
:1037000000F066F840212846FFF74CFF0028F9D06A
:10371000099A11780029ECD105B030BC5DF814FB92
:10372000521C099210786E280CD0722802D0521CBC
:103730000992EDE70D21284600F04AF80998401C4F
:103740000990E5E70A21284600F042F80998401C54
:103750000990DDE7521C09921078642819D073286B
:1037600002D0521C0992D3E7009810C8009009E0DB
:10377000284600F02DF840212846FFF713FF0028C7
:10378000F9D0641C21780029F2D10998401C0990D5
:10379000BEE7009808C800900A2201A9184600F068
:1037A000BFFB01AC09E0284600F012F84021284692
:1037B000FFF7F8FE0028F9D0641C21780029F2D127
:1037C0000998401C0990A3E78088C0F3080070475F
:1037D000C1F3080181807047704770477047704798
:1037E000490050EAC12018BF04204A0D18BF40F01C
:1037F000010040F2FF72B2EB515F08BF40F00200DF
:10380000012808BF052070472DE9F0414F1E00EB4D
:10381000C7010446D1E9000115461E4637F00602ED
:103820000DD02A46334600F029FE7F1E04EBC70365
:10383000D3E9002300F01AFC37F00602F1D1022F81
:1038400025D0042F13D0062F18BFBDE8F0812A46DB
:10385000334600F013FED4E90A2300F007FC2A46A1
:10386000334600F00BFED4E9082300F0FFFB2A46A4
:10387000334600F003FED4E9062300F0F7FB2A46A6
:10388000334600F0FBFDD4E9042300F0EFFB2A46A9
:10389000334600F0F3FDD4E9022300F0E7FB2A46AB
:1038A000334600F0EBFDD4E90023BDE8F04100F021
:1038B000DDBB012201F0C3BB00F0D8BB00221346E0
:1038C0001046114600F082BC024A0020110701F0A8
:1038D000B6BB000001FDFFFF2DE9F04D8D4F21F03B
:1038E000004A86B005460C46BA452ADBAAEB07001B
:1038F00028430AD08848824501DC1AD1CDB106B0F0
:103900002846BDE8F04DFFF7D4BF844A844B2846D3
:1039100000F0B4FD07460E46824A834B28462146F6
:1039200000F0ACFD06B03A463346BDE8F04D00F07D
:103930009DBB0120FCF7B3FC06B0BDE8F04DFFF7DE
:10394000BDBF7A48824542DABAF1795F0BDA284680
:10395000FFF746FF042808BFFFF7B6FF284606B06A
:103960002146BDE8F08D2A460B46104600F086FD44
:10397000834602466E480E460B4606217844FFF702
:1039800043FF5A46334600F079FD804669488A462F
:103990005A46334604217844FFF736FF5A463346E9
:1039A00000F06CFD00223B4600F060FB02460B4637
:1039B0004046514600F00AFC2A46234600F05EFDD0
:1039C00006B02A462346BDE8F04D00F04FBB28461E
:1039D00024F0004100223D463B4600F04DFE4FF0F2
:1039E000FF3201F02CFB0646024653480F460B46B9
:1039F00006217844FFF708FF32463B4600F03EFDC3
:103A0000CDE900014D4832463B4604217844FFF79A
:103A1000FBFE32463B4600F031FD00222B4600F013
:103A200025FB834602913046394600F0C7FA8046AE
:103A300043480D46504517DCDDE900015A46029B1C
:103A400000F0C4FB42462B4600F018FD42462B46D0
:103A500000F00CFB012201F0F2FA304A304B00F08A
:103A6000FDFE304A304B4CE04FF0000A52460B4608
:103A7000404600F0FBFACDE9031052462B461046B3
:103A8000194600F0FBFC32463B4600F0F5FDDDE94F
:103A9000033200F09BFB06460F46DDE900015A4663
:103AA000029B00F093FB8346009101223046394689
:103AB00001F0C5FA194A1A4B00F0DEFD06460F4622
:103AC00001224046294601F0BAFA5A46009B00F00E
:103AD000D5FC32463B4600F0C1FE06460F460122A9
:103AE0005046294601F0ABFA0E4DDFF858802A46C1
:103AF000434600F0C1FD32463B4600F0BDFD2A467C
:103B0000434600F0B9FD002CD8BF81F0004106B05B
:103B1000BDE8F08D0000F03F0000F07F075C14333B
:103B200026A6913C182D4454FB21F93F0000E03FAC
:103B3000082300001E23000092220000A82200009B
:103B40003333EF3FFB21E93F2DE9F84F04460D46A3
:103B500021F0004000917349814211DC7249884292
:103B600001DC06D12CB120462946BDE8F84FFFF70D
:103B7000A0BE6E48002DCCBF6D496E49BDE8F88FE0
:103B80006D49814211DD6D498142D8BF4FF0FF364A
:103B90006DDD20462946FFF723FE042808BFFFF706
:103BA00093FE20462946BDE8F88F6549654F25F00C
:103BB0000045814233DD6449814219DD00263246E9
:103BC0004FF080432046294600F050FA80468A464E
:103BD00001222046294601F032FA00223B4600F03D
:103BE0003DFE4246534600F0F1FA04460D463EE0E3
:103BF00001260022BA463B462046294600F036FA06
:103C000080460F46002253462046294600F026FEF5
:103C100042463B4600F0DAFA04460D4627E04B499F
:103C200081421BDDDFF828A10226002253462046F0
:103C3000294600F023FC00223B4600F017FA80469C
:103C40000F46002253462046294600F007FE424612
:103C50003B4600F0BBFA04460D4608E00326224628
:103C60002B4600203B4900F0B1FA04460D4622469F
:103C70002B461046194600F001FC8B468246024650
:103C80000B4600F0FBFB07460246334888460B46CE
:103C900006217844FFF7B8FD52465B4600F0EEFB84
:103CA00082462E488B463A46434605217844FFF724
:103CB000ABFD3A46434600F0E1FB02460B46002EC0
:103CC000504659460CDA00F0D1F922462B4600F056
:103CD000D5FB01B022462B46BDE8F04F00F0CCBC2E
:103CE00000F0C4F922462B4600F0C8FB1C4A7A4477
:103CF00002EBC603D3E9002300F0B0FD22462B46B9
:103D000000F0ACFD174A7A4402EBC603D3E9002366
:103D100000F0B2FC009A002AB8BF81F00041BDE873
:103D2000F88F0000000010440000F07F182D44546C
:103D3000FB21F93FFB21F9BF0000DC3F0000203EE2
:103D40000000F33F0000F03F0000E63F008003402A
:103D50000000F83F0000F0BFAA200000682000002B
:103D600006200000CE1F00002DE9F04D9446CCF156
:103D7000000423F000464CEA0404524F46EAD4748F
:103D80009A46884621F00042BC4206D8454240EAA5
:103D9000050442EAD474BC4204D9BDE8F04D624641
:103DA000FFF78ABDAAF14055A5F17F6555EA0C04DD
:103DB0000BD0022404EAAA74434DDFF810E144EA70
:103DC000D87452EA000B04D00CE0BDE8F04DFFF7C8
:103DD000BBBE002C14BF012CBDE8F08D022C30D0EE
:103DE000032C32D056EA0C0B0AD0BE4220D1BA4284
:103DF00009D126F0804622F080423346114617E072
:103E000000291ADB25E0DFF8C8B0FB44002C04BF12
:103E1000DBE90001BDE8F08D012C02BFDBE9000108
:103E200081F00041BDE8F08D022C0AD0032C0CD0AB
:103E3000BA4212D1B8F1000F0BDA23482549BDE888
:103E4000F08D28462449BDE8F08D28467146BDE82E
:103E5000F08D1D482149BDE8F08D921B12153C2ABA
:103E6000C4BF19481D490EDCBAF1000FBEBF12F1E4
:103E70003C0F0020014606DB624600F0A7F921F066
:103E80000041FFF761FE002C08BFBDE8F08D012C5A
:103E900004BF81F00041BDE8F08D114A114B022CA6
:103EA00007D000F0DBFC2A46BDE8F04D0A4B00F0DD
:103EB000D5BC00F0D3FC2A46BDE8F04D064B00F01F
:103EC000DBBB00000000F07F182D4454FB2109C02B
:103ED000621F0000FB21F9BFFB210940FB21F93FD4
:103EE000075C143326A6A13C10B504464FF0FF3101
:103EF000204601F0D2F801460848A0EB64042046B1
:103F000000F020FF214600F01DFF4FF07F5100F030
:103F1000E5FF2146BDE8104000F014BF865A375F28
:103F2000F0B503460025084600260A2A01D006708F
:103F3000F0BD002B1DD005DA4FF02D0200F8012B4B
:103F4000C3F1000342F210724FF00A0793FBF2F440
:103F500054EA050C06D004F1300500F8015B04FBBF
:103F60001233012592FBF7F2002AEFDC06700846B7
:103F7000F0BD3022027046700846F0BD10B5FCF767
:103F80007BF9FDF7B3FEFDF73BF8FDF789FAFDF786
:103F900028FAFDF75DFAFDF761FD0223054A0021CD
:103FA0000548FDF7CFFF0020FEF772F9FDF796FFF9
:103FB000002010BD60040020A50F00082DE9F0418D
:103FC00006460F4600F064FB04000D4618BF0120B2
:103FD000284320F00040C0F17F6000F1E040C00FB6
:103FE0000ED0301C18BF0120384320F00040C0F133
:103FF0007F6000F1E040C00F04BF0120FCF74FF9E3
:1040000020462946BDE8F08121F00042A2F160522D
:10401000B2F5801F01F0004328BFD2F17F6C0BD9AD
:104020005FEA001C43EAC20242EB507018BF7047BF
:1040300028BF20F001007047B2F5801FBCBF1846B2
:1040400070474FEA410C1CF5001F02D2084600F0F1
:1040500040BF70B500F0BCFA00000089FFF7F6BF62
:104060004FF00040A0F580007047000010B591EAC5
:10407000030F48BF83F0004300F1F883841A71EB0B
:10408000030C05D2121943EB0C03001B61EB0C016E
:10409000DFF824E14FEA1154A4EB135C1EEA430F4E
:1040A00018BF9EEA445F73D023EA0E03DCF1200EB2
:1040B00021EA045143F4801332D322FA0CFE10EBB0
:1040C0000E0023FA0CFE41EB0E01CCF1200E03FA98
:1040D0000EFE10EB0E0051F10001B1F5801FCCF186
:1040E000200E32D201EB045112FA0EF2BDE810405C
:1040F00058BF7047401C38BF5FEA420218BF704784
:10410000002814BF20F0010041F100014FEA4103F3
:1041100013F5001F38BF7047A1F1C04100F0A6BAE7
:10412000012A43EB0302ACF1200CDCF11F0E32BF7D
:104130004FF0000E23FA0CF310EB030041EB045197
:10414000B4EB115FD0D0A1EB045101F58011490807
:104150005FEA300001EB04510ED350F1000038BF8C
:1041600012FA0EFE08D1BDE81040C9E7401C38BF66
:104170005FEA4202CAD1C3E7BDE810404FEA4103FB
:1041800013F5001F38BF7047A1F1C04100F06EBAAF
:104190009EEA445F08D011EA5E0FBDE8104004BFFC
:1041A00001F0004100207047BDE8104070B500F0FC
:1041B0000FFA00BF64FBBE3E0000E0FF02494FF073
:1041C000000000F00ABF00BF0000F87F2DE9C041E9
:1041D00030B4DFF8A0C23CEA111418BF3CEA131453
:1041E00000F0EC8081EA03051CEA111444EAD5745E
:1041F00018BF1CEA131500F0C780A4EB05044FF0AC
:10420000004545EAC12145EAC32341EA505143EA4A
:10421000525304F17F74994204F500344FEAC020F0
:104220004FEAC22208BF904200F09C804FEA13651B
:104230000FF24016765D4FEA134506FB05F7C7F10E
:10424000807706FB07F74FEAD737A7FB036876426C
:10425000C8F58038A7FB06CE38BFA8F1010807FBD8
:1042600008E64FF0000EA6FB028CE6FB03CEDCF165
:10427000000CCEF1004E38BFAEF1010EA6FB0C587B
:104280004FF000074FF00005E6FB0E87A1FB08C6C4
:10429000A0FB07CE16EB0E0645F10005E1FB076516
:1042A00015F1E04E7EBFA4F580345FEA46066D410D
:1042B00016F1800745F100054FEA17274FEA066619
:1042C00047EA0567A6F1DE46B6F1805F4FEA15259D
:1042D0001FD9384624F0010C05EBC471BCF1FE6F08
:1042E00001EB0C1102D8F0BCBDE8008124425CBF98
:1042F00001F5801E9EEAC47F02D4F0BCBDE80081B7
:10430000244238D4F0BCA1F1C041BDE8004100F026
:10431000ADB94FEAD22242EA43524FEAD323A7FB78
:1043200002864FEAD02040EA415007FB03661EEAAE
:104330000E0F4FEAD12105FB026658BFA6EB0056CF
:10434000B6EB00564FEA520E4EEAC37E18EB0E0E45
:1043500056EB530EBDD518EB02085E417F1C55F19C
:104360000005B6E74FF480154FF000074FF0000648
:104370004FF00008ADE7F0BC4FF0000001F1C04184
:1043800001F00041BDE8008111EA0C1F0CEA131591
:1043900000D00CE013EA0C1F00F025804FF0000065
:1043A000F0BC81EA030101F00041BDE80081F0BCEE
:1043B000BDE8004181EA030100F058B9F0BCBDE856
:1043C000004170B500F004F9097EFC3E00F007B82A
:1043D00081EA03014FF0000001F00041704781EADB
:1043E000030100F043B9F0BCBDE800414FF000000C
:1043F00021497047FFFDFBF9F7F5F4F2F0EEEDEB24
:10440000E9E8E6E4E3E1E0DEDDDBDAD8D7D5D4D3D2
:10441000D1D0CFCDCCCBCAC8C7C6C5C4C2C1C0BF1E
:10442000BEBDBCBBBAB9B8B7B6B5B4B3B2B1B0AF24
:10443000AEADACABAAA9A8A8A7A6A5A4A3A3A2A108
:10444000A09F9F9E9D9C9C9B9A99999897979695C3
:1044500095949393929191908F8F8E8E8D8C8C8B5F
:104460008B8A8989888887878685858484838382E7
:10447000828181800000FF070000F87FDFF848C1DB
:1044800070B51CEA111E1EBF1CEA13159EEA0C0F24
:1044900095EA0C0F00F06F8081EA030423EA4C13C5
:1044A0004EEAD47E21EA4C1141F4801143F480138A
:1044B000AE44A1FB024CA0FB0365AEF17F7E361932
:1044C00055EB0C05A1FB034C4CF10003A0FB021CB7
:1044D00016EB0C06654153F10003094218BF46F084
:1044E000010613F4007F0BD14FEA03314FEA053088
:1044F000340341EA155140EA16506FF003020AE016
:104500004FEAC3214FEAC520F40241EA555140EA7F
:1045100056506FF0020202EB2E4201EB025585EA83
:10452000CE710AD05FEA440C18BF24F0004450F169
:10453000000041F1000120EAD47040F2FE7C6245A7
:1045400000D270BDA84214BF4FF080444FF04044E9
:10455000002E08BF0024BEF1806FA8BFA1F1C041AA
:10456000BDE8704080F282804FF0000001F1C04150
:1045700001F0004170479EEA0C0F0CEA131518BFBA
:1045800095EA0C0F06D04FF0000081EA030E0EF002
:10459000004170BD00F01CF88900013E00F007B832
:1045A00000F009B84FEA430C5FEA5C5C08D081EA8E
:1045B000030100F05BB84FEA410C5FEA5C5CF6D1A6
:1045C0004FF00000014970470000FF070000F87F2E
:1045D0000EF1020E2EF0030E5EF8046B364205D487
:1045E000012A43EB030515F5001F12D8012841EB02
:1045F000010C1CF5001F0CD80ED14FEAD17C15F52B
:10460000001F0CEB4C0C0CF1020C08BF4CEBD37CE4
:1046100004E04FF0080C01E04FEAD37C0CEB4C05B2
:1046200026FA05F606F00706B6F1040C06D20EEBE4
:10463000860CBDE870404CF0010C6047DFE80CF0E0
:10464000090B02024FF000414FF00000A1F50021DC
:1046500070BD19461046012851EB010418BFD4F56E
:10466000001484BF002001F0004170BD0808A0F5CF
:1046700000114FEA3101704791EA030F10B581F044
:1046800000413FF5FBAC83F0004300F0EFB80000C1
:104690002DE9F04101F5801CBCF5001FC0F2C3807C
:1046A0004FEA115C21EA0C510CF1FD0C41F4801130
:1046B0005FEA5C0C0CF5C07C01D3400049413DA48D
:1046C000890241EA905187028E0E0A0CA45D04FB18
:1046D00004F602FB06F6C6F14046A4FB0662F60DA0
:1046E00046EA422606FB06F4A4FB01235242C3F12C
:1046F000404338BF5B1EA6FB02420024E6FB0324B6
:10470000D20B42EA4446A6FB0623A1FB02E2A3FB2E
:1047100007E4A4184FF0000252F10002E3FB01424B
:104720006442C2F1404E38BFAEF1010EA6FB042335
:104730004FF00002E6FB0E32A2FB03464FF00004EE
:10474000B61954F10004E2FB0264A1FB06E6A4FBE7
:1047500007E816EB08064FF0000858F10008E4FBE4
:1047600001687642C8F1405838BFA8F10108A2FBA1
:1047700006E4A3FB08E52D194FF0000454F10004F2
:10478000E2FB0854A1FB05E6A7FB04E818EB0608CA
:104790004FF0000656F10006E1FB048618F12005F3
:1047A00056F10006A809A8F11B08B10908F03F0856
:1047B000B8F10A0F40EA86601CD901EB0C51BDE844
:1047C000F08100BFFCF5EEE8E2DDD8D3CFCBC7C364
:1047D000C0BDB9B6B4B1AEACA9A7A5A3A19F9D9B1E
:1047E0009A9896959392908F8D8C8B8988878685E1
:1047F00084838281A0FB006800FB01F208EB420881
:10480000B8EB872807D5341858EB0104D5D5401CE0
:1048100051F10001D1E7341A78EB0104CDD4401EE8
:1048200071F10001C9E75FEA4C0C5FEA9C5C0DD1B5
:1048300005D34FF0000001F00041BDE8F081BDE874
:10484000F04170B5FFF7C4FE6DDBFFBEBDE8F0417F
:104850004FF00000004970470000F87F10B591EA62
:10486000030F48BF83F000433FF508AC841A71EB97
:10487000030C07D212198CF0004C43EB0C03001B05
:1048800061EB0C01DFF8A4E14FEA1154A4EB135CD7
:104890001EEA430F18BF9EEA445F00F0B08023EA8F
:1048A0006E03524221EA0451C3EB6E0338BF5B1E14
:1048B000DCF1200E25D322FA0CFE10EB0E0043FA99
:1048C0000CFE41EB0E01CCF1200E03FA0EFE10EBB4
:1048D0000E0051F10001CCF1200E29D412FA0EF293
:1048E00001EB0451BDE8104058BF7047401C1CBF8D
:1048F000B2F1004F704700280CBF491C20F00100A6
:10490000704712EB020E43EB030218BF4FF0010E8B
:104910004EEA4202ACF1200CDCF11E0E54D943FAEF
:104920000CFE10EB0E0051F1FF31CCF11E0ED5D56F
:104930000EF1010E12FA0EFE404141EB010101EBB6
:10494000445C5FEA5C5C10D910EBDE7001EB045153
:1049500038BFBEF1004FBDE8104018BF70470028B7
:104960000CBF491C20F00100704730D24FEAD42C14
:1049700011F5001124F400641BD0B1FA81F20B3A56
:10498000A41AA41ED2F12003914030FA03F3194374
:10499000904001EBCC71002C01EB0451BDE81040BC
:1049A000A8BF704701F1C0414FF0000001F0004185
:1049B0007047B0FA80F310FA03F100D110BDE41A89
:1049C000173C4805C90AE4E701EB045110BD491042
:1049D00001EB0451BDE810404FEA300002E04FF017
:1049E000000170474A0008BF0042F8D0B2F5001F2E
:1049F00028BF704701F000414FF0000070479EEA69
:104A0000445F07D011EA5E0FBDE8104004BF0021EB
:104A100000207047BDE8104070B5FFF7D9FD00BF1A
:104A200040DFF63E83F00041104670470000E0FF93
:104A300043004FEAD30C4FEA3C0C43401FBF4007F2
:104A40000CF1605113F0FE4F70471CF0006F03D162
:104A500000200CF0004170470CF0004343EA507016
:104A600010B540EACC0000F0EEF900BF0000009263
:104A70004FEA0001FFF7FABD4FF000414FF0000090
:104A8000A1F500217047000090EA010F48BF81F0B6
:104A9000004100F13482421A3CBF801A89184FEA63
:104AA000D0524FF07F4C1CEA410FA2EBD15318BFFC
:104AB0009CEA026F00F03B804FF0004C4CEA002073
:104AC0004CEA012121FA03FC10EB0C0C1ED202F17E
:104AD000FF325FEA1C2040EBC25038BF70471CF029
:104AE0007F0F4FEA400C18BFBCF17F4F38BF7047B3
:104AF000C3F12003994008BF20F00100BCF17F4FB3
:104B000038BF7047A0F1C04000F0E3B94FEA3C0065
:104B1000000A40EBC25028BF1CF0FF0F4FEA400CC8
:104B2000E6D018BFBCF17F4F38BF7047EAE79CEA78
:104B3000026F05D010EA5C0F08BF00F0004070471C
:104B400010B500F080F900BF64FBBE3E014800F0E4
:104B500044BA00BF0000C07F4FF47F0C1CEAD012A3
:104B60001EBF1CEAD11392EA0C0F93EA0C0F00F05F
:104B7000858090EA010F48BF42F4807240F4000C37
:104B800041F400002CF07F4120F07F4000B58142CD
:104B9000A2EB03020FF2081CACEB504EC0F1000078
:104BA0009EF800E04FEA4E0E00FB0EFC38BF4900B5
:104BB0004FEA2C1C02F5FA020CFB0EF34FEACE1E54
:104BC0004FEA112C4FEAC1210EEB635E42EB224209
:104BD0000EFB0CFC4FEA1C5300FB03114FEA112C97
:104BE0004FEA01310EFB0CFC4FEADC4C00FB0C11D0
:104BF000C14228BF09184CEB03335DF804EB10EBFE
:104C0000410143EBC250B2F57C0F38BF704729D544
:104C100012F0F00F1CBF00F1C04000F000407047E0
:104C2000008182838485868788898B8C8D8E8F9185
:104C30009293959697999A9C9D9FA0A2A3A5A7A8A9
:104C4000AAACAEB0B2B3B5B7B9BCBEC0C2C5C7C9D5
:104C5000CCCED1D4D7D9DCDFE2E6E9ECF0F3F7FA39
:104C6000FE0000004FEA400C0CF1807CBCF17E4F4E
:104C700028BF7047B0F1C04000F02BB990EA010F97
:104C80000CEAD11348BF42F48072624538BF6345D5
:104C900007D213F47F0F16D080EA010000F0004025
:104CA000704710B500F0CFF8097EFC3E00F005B863
:104CB00080EA010000F00040704780EA010000F047
:104CC000004000F006B912F47F0F04BF024870479D
:104CD00080EA010000F0FDB80000C07F41000B0E2B
:104CE000D3F19E0208D950F400034FEA032323FABC
:104CF00002F048BF4042704710B500F0A4F800BF72
:104D000049922480002070476FF0004282EA200020
:104D10007047000010F0004148BF4042B0FA80F3F5
:104D200010FA03F2C3F19D030BD051EAC35101EB1A
:104D30001220530638BF704700F1010008BF20F071
:104D4000010070474FF47F0C1CEAD0121EBF1CEA12
:104D5000D11392EA0C0F93EA0C0F00F0478090EA0F
:104D6000010F48BF42F480724FF0004C4CEA002023
:104D70004CEA012102EB0302A0FB0113A2F50002A1
:104D8000002918BF43F001035B0028BF4FEA33033B
:104D900042EB22425FEA132C4CEBC2502EBFBCEB1D
:104DA000436FB2F57C0F70474FEA036CBCF1004FC4
:104DB00008BF20F00100B2F57C0F38BF70470BD55B
:104DC00082F0FF0212F5803FC8BF704700F1C0407B
:104DD000D8BF00F00040704700F5000C5FEA4C0CB3
:104DE00048BF7047B0F1C04000F073B890EA010FBF
:104DF0000CEAD11348BF42F48072624538BF634564
:104E000004D280EA010000F00040704710B500F0C5
:104E10001AF800BF8900013E00F007B800F009B899
:104E20005FEA410C5FEA1C6C08D080EA010000F0E8
:104E300050B85FEA400C5FEA1C6CF6D14FF00040BE
:104E4000A0F5800070470EF1020E2EF0030E5EF802
:104E5000044B244204D44FEA4102B2F17F4F11D8EF
:104E60004FEA4003B3F17F4F0CD80ED14FEAD07C0C
:104E7000B2F17F4F0CEB4C0C0CF1020C08BF4CEB69
:104E8000D17C04E04FF0080C01E04FEAD17C0CEB40
:104E90004C0324FA03F404F00704B4F1040C06D222
:104EA0000EEB840CBDE810404CF0010C6047DFE8CD
:104EB0000CF0070802024FF00040A0F5800010BD82
:104EC0000846420018BFD2F1807288BF00F000404F
:104ED00010BDFF2141EAD050C005704780F000406E
:104EE00090EA010F7FF5D7AD81F0004100F007B8DF
:104EF00090EA010F48BF81F000413FF5CCAD421A66
:104F000004D882F00042A0EB020011444FEAD052D4
:104F10004FF07F4C1CEA410FA2EBD15318BF9CEA23
:104F2000026F4AD04FF0004C4CEA00204CEA0121BD
:104F300021FA03FCB0EB0C0C0FD412F0FE0F36D0AC
:104F40005FEA4C001DD5001240EBC25038BF7047DD
:104F50001CF03F0F18BF70470BE0A2F101025FEA9F
:104F60001C2040EBC25038BF70471CF07F0F18BFA9
:104F70007047C3F12003994014BF401E20F0010088
:104F8000704780084FEA122308BF7047B0FA80FCD0
:104F9000A2EB0C02CCF1280C60FA0CF093EA122F71
:104FA00004BF00EBC25070474FEAC3707047130A4A
:104FB0005FEADC1008BF7047F6E79CEA026F04D096
:104FC00010EA5C0F08BF0020704710B5FFF73BFFE9
:104FD00040DFF63E81F0004070470CF00F03092BD4
:104FE00008BF082000F07F800A2B0BD0082B18BFC9
:104FF000704708BF1CF0400F0AD04FF000004FF080
:10500000000170471CF0400F18BF4FF00040704780
:105010001CF0100F08D020F0704300F07F4242EAED
:10502000D3014FEA4370704700F0604021F07F42A7
:1050300042EA000201F07F4040EA727070474FF090
:10504000FF0C4CF4E06C1CEA11531CBF9CEA030CEF
:105050009445C2BFDA4201EB02517047002B0DD0DC
:10506000BCF1000F0FD0002A01F00041A4BF41F0B5
:10507000E04141F07F614FF00000704701F00041D6
:105080004FF00000704750EA01334FF09B0C18BFFF
:105090004CF0806C7FF492A870474FF0FF0212EA48
:1050A000D0521CBF92F0FF038B42C2BFD14200EB33
:1050B000C1507047002A0AD0002B0BD0002900F005
:1050C0000040A4BF40F0FE4040F40000704700F0F4
:1050D0000040704743024FF00B0C18BF4CF0806C3F
:1050E0007FF434AD70471CF4801F11D01CF4E02F06
:1050F00003D06FEACC31490070474FF04050EFF3D6
:10510000008222F0704242EA000282F30088704777
:105110004FF0000070470000000000008080C04099
:10512000404080800000000000000000C0F8FE3F0A
:1051300003010000000000031FFEF8C00000000093
:10514000FFFFFF00000000000000000000FFFFFF65
:1051500000000000010F3F7EE0808000000080E042
:105160007C3F0F0100000000000000000000010172
:10517000010100000000000000000000000000002D
:105180000000000080C000000000000000000000DF
:1051900000000002020202FFFFFF0000000000000A
:1051A0000000000000000000000000FFFFFF000002
:1051B000000000000000000000000000000080FF70
:1051C000FFFF800000000000000000000000000160
:1051D00001010101010101010101010000000000C4
:1051E000000000808040404040C0C080800000003F
:1051F000000000007C7F7100000000000000000340
:10520000FFFF7C000000000000000000000080C0E4
:1052100060381C0F0701000000000000C0E0B09CD7
:105220008E83818080808080C0E038000000000094
:105230000101010101010101010101010101000060
:10524000000000000000808040404040C0C08080DE
:1052500000000000000000001E3F390000000000B8
:10526000000083FFFF7C0000000000000000000041
:1052700000040404060E1B39F0E08000000000006A
:105280003C7EDE80000000000080C0E07F3F0F0019
:105290000000000000000000010101010101000008
:1052A00000000000000000000000000000000000FE
:1052B000000080C0000000000000000000000000AE
:1052C000008060300C07FFFF0000000000000000BD
:1052D0008060300C030100000000FFFF00000000B0
:1052E0000000000101010101010101010101FFFFB5
:1052F0008101010101000000000000000000010127
:105300000101010101010101000000000000C0C015
:10531000C0C0C0C0C0C0C0C0C0C0C000000000004D
:1053200000E01F000000000000000000000000007E
:1053300000000000001F1804060303030303071EF8
:10534000FCF8E000000000001C7E8E8000000000E1
:105350000080C0F07F3F0F00000000000000000050
:105360000101010101010000000000000000000037
:10537000000000000080804040404040C0800000AD
:105380000000000080F0FC1E03010000000000008F
:105390000707070000000000FFFFFF180C060303CB
:1053A000030307071EFEF8E000000000031F3F781C
:1053B000E080800000000080E07F3F0F00000000E0
:1053C00000000000000001010101010000000000D8
:1053D000000000000000C0C0C0C0C0C0C0C0C0C04D
:1053E000C0C0C0C000000000000E030100000000AB
:1053F0000000C0301C070100000000000000000099
:105400000000C0F03C0700000000000000000000A9
:105410000000000000FCFFFF000000000000000092
:10542000000000000000000000000101000000007A
:1054300000000000000000000000008080C040402C
:10544000404040C08080000000000000007CFFFF62
:10545000C38000000000000083FFFF7C000000000C
:1054600080C0E1731B0F070E1E1C3C7EF3F1C08051
:10547000000000001F3F7FE08080000000000080EF
:10548000E07F3F1F0000000000000000000101015C
:105490000101010000000000000000000000008089
:1054A00080C040404040C08000000000000000007C
:1054B000F8FEFF07010000000000000107FEFCE00D
:1054C00000000000071F3F3C7070606060203018D3
:1054D0000EFFFF7F000000000070F0F000000000F1
:1054E0008080E0703F1F0700000000000000000106
:1054F00001010101010000000000000000000000A7
:10550000000000000000000000000000000000009B
:1055100000000000000000000070F8F8F8700000C3
:10552000000000000000000000000000000000007B
:10553000000000000000000000000000000000006B
:10554000000E1F1F1F0E00000000000000000000E2
:10555000000000000000000000000000000000004B
:10556000000000000000000000000000000000003B
:10557000000000000000000000000000000000002B
:10558000000000000000000000000000000000001B
:10559000000000000000000000000000000000000B
:1055A00000000000000000000000000000000000FB
:1055B00000000000000000000000000000000000EB
:1055C00000000000000000000000000000000000DB
:1055D000000000000000000000F8000000000000D3
:1055E00000333000000000100C06100C0600000014
:1055F00000000000000040C07840C0784000043F38
:1056000004043F040400007088FC08300000001807
:1056100020FF211E0000F008F000E018000000212B
:105620001C031E211E0000F00888700000001E21CF
:1056300023241927211010160E000000000000007E
:10564000000000000000000000E01804020000005C
:1056500000071820400000020418E000000000408D
:10566000201807000000404080F080404000020207
:10567000010F01020200000000F000000000010123
:10568000011F01010100000000000000000080B0C7
:105690007000000000000000000000000000000199
:1056A00001010101010100000000000000000030C4
:1056B000300000000000000000008060180400605E
:1056C00018060100000000E010080810E000000FBC
:1056D000102020100F00001010F800000000002023
:1056E000203F20200000007008080888700000306B
:1056F0002824222130000030088888483000001813
:10570000202020110E000000C02010F8000000072B
:105710000424243F240000F80888880808000019A1
:10572000212020110E0000E0108888180000000FD2
:10573000112020110E0000380808C83808000000A9
:10574000003F000000000070880808887000001CFE
:10575000222121221C0000E010080810E0000000B7
:10576000312222110F00000000C0C0000000000024
:105770000030300000000000008000000000000049
:105780008060000000000000804020100800000140
:105790000204081020004040404040404000040403
:1057A00004040404040000081020408000000020CD
:1057B000100804020100007048080808F00000000A
:1057C000003036010000C030C828E810E00007189B
:1057D000272423140B000000C038E0000000203C08
:1057E00023020227382008F8888888700000203FAC
:1057F000202020110E00C0300808080838000718C3
:1058000020202010080008F808080810E000203FB9
:10581000202020100F0008F88888E8081000203F9A
:1058200020202320180008F88888E8081000203F6E
:10583000200003000000C0300808083800000718E6
:105840002020221E020008F808000008F808203F67
:10585000210101213F20000808F80808000000206D
:10586000203F2020000000000808F8080800C08041
:1058700080807F00000008F888C028180800203FBA
:1058800020012638200008F8080000000000203F12
:1058900020202020300008F8F800F8F80800203F09
:1058A000003F003F200008F830C00008F808203F03
:1058B000200007183F00E01008080810E0000F1053
:1058C000202020100F0008F808080808F000203FEA
:1058D000210101010000E01008080810E0000F1885
:1058E000242438504F0008F8888888887000203FAA
:1058F0002000030C302000708808080838000038A9
:10590000202121221C00180808F8080818000000AF
:10591000203F2000000008F808000008F808001FD9
:10592000202020201F000878880000C838080000C8
:1059300007380E010000F80800F80008F800033CE2
:105940000700073C030008186880806818082030AA
:105950002C03032C30200838C800C8380800000089
:10596000203F2000000010080808C8380800203830
:10597000262120201800000000FE02020200000084
:10598000007F40404000000C30C0000000000000DC
:1059900000010638C00000020202FE0000000040C4
:1059A00040407F00000000000402020204000000EA
:1059B00000000000000000000000000000008080E7
:1059C00080808080808000020204000000000000CF
:1059D00000000000000000008080808000000019AE
:1059E000242222223F2008F8008080000000003F8F
:1059F000112020110E000000008080800000000EA9
:105A0000112020201100000000808088F800000E86
:105A1000112020103F200000808080800000001FA7
:105A2000222222221300008080F08888881800201B
:105A3000203F202000000000808080808000006BDC
:105A400094949493600008F8008080800000203FC8
:105A5000210000203F2000809898000000000020D6
:105A6000203F20200000000000809898000000C027
:105A70008080807F000008F8000080808000203F48
:105A800024022D302000000808F80000000000204B
:105A9000203F202000008080808080808000203F88
:105AA00020003F20003F8080008080800000203F59
:105AB000210000203F200000808080800000001F27
:105AC000202020201F00808000808000000080FFB8
:105AD000A12020110E000000008080808000000EB8
